:100000000C9470000C948D000C948D000C948D0059
:100010000C948D000C948D000C948D000C948D002C
:100020000C948D000C948D000C948D000C948D001C
:100030000C948D000C948D000C9429010C948D006F
:100040000C948D000C948D000C948D000C948D00FC
:100050000C948D000C948D000C948D000C948D00EC
:100060000C948D000C948D004C034F0352035503E8
:1000700058035D03620367036C0371036606C106E0
:1000800028077707DE0777072807C10666061706E1
:10009000CA0517066606C1062807C10666061706C2
:1000A000CA057B0515087B05CA0517066606490AB9
:1000B000980AE70A360B8B0B360BE70A980A490AAF
:1000C000FA09AB09FA09490A980AE70A980A490A9B
:1000D000FA09AB095C091A095C09AB09FA09490A72
:1000E00011241FBECFEFD8E0DEBFCDBF11E0A0E0EE
:1000F000B1E0E6EFFDE102C005900D92AA33B10731
:10010000D9F721E0AAE3B1E001C01D92A739B207F7
:10011000E1F70E94F4010C94F90E0C94000080E2C7
:1001200080937C0083E880937A000895EAE7F0E00A
:100130008081806480838091790008956F927F929E
:100140008F929F92AF92BF92CF92DF92EF92FF92E7
:100150000F931F93CF93DF93833030F0082F10E07D
:10016000101611061CF02DC003E010E0C0E0D0E036
:10017000812C912C5401EE24EA94FE2CC12CD12C1C
:10018000612C712C0E94960024E0829FC0011124F2
:100190008D3D910518F08C5D910902C0862D972D3B
:1001A000C816D90608F46C018E159F0508F47C0169
:1001B000880E991EA11CB11C2196C017D10714F3FB
:1001C00008C0812C912C5401EE24EA94FE2CC12C01
:1001D000D12CD501C4018C199D09A109B109BC011B
:1001E000CD016E197F09810991090E94C00D6B0133
:1001F0007C01B80162507109072E000C880B990B25
:100200000E94C20D9B01AC01C701B6010E941F0DE7
:1002100020E030E040E05FE30E94B30C0E94910DCB
:10022000CB01DF91CF911F910F91FF90EF90DF9065
:10023000CF90BF90AF909F908F907F906F900895D8
:1002400082E084BD93E095BD80936E008AEF87BD08
:1002500008951F920F920FB60F9211242F933F9380
:100260004F935F936F937F938F939F93AF93BF93BE
:1002700040913E0150913F014F5F5F4F50933F01CE
:1002800040933E01493E83E0580728F010923F0119
:1002900010923E011AC09A01ADECBCEC0E94EA0E2D
:1002A0009695879596958795969587959C01220FAB
:1002B000331F880F991F880F991F880F991F820F6E
:1002C000931F4817590709F053C04A9913C08091EA
:1002D0003C0190913D018436910530F40196909354
:1002E0003D0180933C011AC080914A01811116C0E2
:1002F0005F9A14C080913C0190913D018436910534
:1003000021F482E08093390105C0049718F083E05E
:100310008093390110923D0110923C014B990DC020
:1003200080913A0190913B0184369105D0F4019679
:1003300090933B0180933A0114C080913A019091CF
:100340003B018436910521F482E08093380105C099
:10035000049718F083E08093380110923B011092CB
:100360003A0180914201811103C081E080934201F2
:1003700040913E0150913F019A01A9E8B8E80E94DE
:10038000EA0E929582958F7089279F7089276EE17A
:10039000689F9001699F300D11244217530779F42B
:1003A000809148018A3021F0809100018A3039F42F
:1003B00080914B01811103C081E080934B01BF917B
:1003C000AF919F918F917F916F915F914F913F91ED
:1003D0002F910F900FBE0F901F90189588E284B94F
:1003E00017B882EB8AB908950E94EE010E9420019D
:1003F0000E948F000E9478037894C1E01FEFDAE03A
:1004000002E080913901823019F08330D1F04BC085
:1004100080914A01882371F080E090E0FC01EF5F59
:10042000FE4FC083019689319105C1F70E94620C8D
:100430005F9804C0C0934A01C0934901C093390139
:1004400032C0809148018F5F8093480190914801AC
:1004500080910001981309C080914701882329F0F9
:10046000809148018F5F80934801C093490180913A
:1004700048018A3081F480914701833019F4109249
:1004800048010FC01093450110924401109243019E
:100490001092460106C0809148018B3010F01092F6
:1004A0004801C093390180913801823019F08330BE
:1004B00081F189C0809147018F5F809347018091CE
:1004C00047018A3010F010924701C0933801909193
:1004D000480180910001981305C0809100018F5F51
:1004E00080930001C0934901809100018A3049F452
:1004F000109345011092440110924301109246015D
:1005000062C0809100018B3008F45DC01092000140
:100510005AC08091470181111CC08091480181110E
:1005200003C0D093480105C0809148018150809359
:100530004801C0934901809148018A3009F041C0C7
:10054000109345011092440110924301109246010C
:1005500038C080914701813041F08091470182305D
:1005600021F080914701833061F5809100018F5F18
:10057000809300019091480180910001981305C07B
:10058000809100018F5F80930001C09349018091A9
:1005900000018A3081F480914701833019F4109270
:1005A00000010FC0109345011092440110924301C5
:1005B0001092460106C0809100018B3010F010921D
:1005C0000001C093380180914B018823F1F1109212
:1005D0004B01809146018130A9F018F0823019F169
:1005E00032C0809145018150809345018091440142
:1005F0008F5F80934401809144018F3F21F5C09328
:10060000460121C080914401815080934401809132
:1006100043018F5F80934301809143018F3F99F4A1
:100620000093460110C080914301815080934301A3
:10063000809145018F5F80934501809145018F3FF7
:1006400011F410924601C093490180914201882320
:1006500059F0109242018D2F0E949E00909341010B
:1006600080934001C093490180914901882309F496
:10067000C8CE80914A01882309F4C3CE1092490163
:10068000E09147018E2F90E08A30910570F5FC01D2
:10069000EC5CFF4F0C94E40E0E94A70326C00E945E
:1006A000CE0323C00E94100420C00E9461041DC01C
:1006B0000E94A7030E94330818C00E94CE030E9424
:1006C000330813C00E9410040E9433080EC00E9419
:1006D00061040E94330809C00E94A7030E949C087D
:1006E00004C00E9461040E949C080E94620C89CE92
:1006F00087E690E09093C5008093C40088E18093E2
:10070000C10086E08093C2000895893108F080E03E
:100710006A3008F060E090E070E0FB01EE0FFF1F30
:100720006E0F7F1FFB01E65EFE4F2081DC01AA0FEA
:10073000BB1F8A0F9B1FDC01A45BBE4F2C938181E2
:1007400011968C931197828112968C930895CF9372
:10075000809148018A30B9F480E090E02091450111
:10076000FC01EE0FFF1FE80FF91FE45BFE4F218332
:1007700020914401208320914301228301968931F5
:10078000910561F709C0C0E0609148018C2F0E947B
:100790008503CF5FC931C1F7CF910895CF93DF9320
:1007A000C0E0D0E0C0FF1BC0809148018A3089F4CE
:1007B00080914501FE01EE0FFF1FEC0FFD1FE45B72
:1007C000FE4F818380914401808380914301828325
:1007D00020C0609148018C2F0E9485031AC080912F
:1007E00000018A3089F480914501FE01EE0FFF1F60
:1007F000EC0FFD1FE45BFE4F8183809144018083F9
:1008000080914301828305C0609100018C2F0E947A
:1008100085032196C931D10529F6DF91CF9108953D
:10082000CF93DF93C0E0D0E0CE019E012650310986
:100830002330310548F0CB30D10531F0CD30D10532
:1008400019F040970397D8F4809100018A3089F419
:1008500080914501FE01EE0FFF1FEC0FFD1FE45BD1
:10086000FE4F818380914401808380914301828384
:1008700020C0609100018C2F0E9485031AC08091D6
:1008800048018A3089F480914501FE01EE0FFF1F77
:10089000EC0FFD1FE45BFE4F818380914401808358
:1008A00080914301828305C0609148018C2F0E9492
:1008B00085032196C931D10509F0B6CFDF91CF91DB
:1008C00008952F923F924F925F926F927F928F92F4
:1008D0009F92AF92BF92CF92DF92EF92FF920F93CF
:1008E0001F93CF93DF93CDB7DEB764970FB6F8941D
:1008F000DEBF0FBECDBF8091480190E0FC01EE0F3E
:10090000FF1F8E0F9F1FFC01E65EFE4F308180911E
:10091000480190E0FC01EE0FFF1F8E0F9F1FFC01AE
:10092000E65EFE4F21818091480190E0FC01EE0FD0
:10093000FF1F8E0F9F1FFC01E65EFE4F42818091DC
:10094000000190E0FC01EE0FFF1F8E0F9F1FFC01C6
:10095000E65EFE4F50818091000190E0FC01EE0FB9
:10096000FF1F8E0F9F1FFC01E65EFE4F618180918D
:10097000000190E0FC01EE0FFF1F8E0F9F1FFC0196
:10098000E65EFE4F8281531788F4A32FB0E0A51BCB
:10099000B109FD010AF43796F595E795F595E795C8
:1009A000F595E795EB87332433940FC0E52FF0E0FE
:1009B000E31BF109DF010AF41796B595A795B595E4
:1009C000A795B595A795AB87312C621790F430E0C9
:1009D000261B3109B90112F4695F7F4F7595679540
:1009E00075956795759567956C87932D9260392EEF
:1009F0000FC070E0FB01E21BF109BF0112F4695F57
:100A00007F4F7595679575956795759567956C8713
:100A1000841790F490E0841B91099C0112F4295FE3
:100A20003F4F359527953595279535952795222E56
:100A3000F32DF4603F2E0EC090E0841B91099C01C1
:100A400012F4295F3F4F35952795359527953595B4
:100A50002795222E88248394912C00E010E0A22C6C
:100A6000B12C3501660C771C660C771C660C771C64
:100A70008C85C82ED12C9B85E92EF12C2501440CA8
:100A8000551CF201EA0DFB1DFA83E983EE0FFF1FEF
:100A9000FE87ED87C601880F991F9C838B838C0D81
:100AA0009D1D9E838D83880F991F988B8F87F701DB
:100AB000EE0FFF1FF887EF83EE0DFF1DFA87E98722
:100AC000EE0FFF1FFA8BE98B3B8A2C8A05C00F5F64
:100AD0001F4FFFEF8F1A9F0A180160914801802F66
:100AE0000E9485030931110508F09FC2F801E25CFC
:100AF000FF4F0C94E40E8B8980FF0CC0F801EE0FC1
:100B0000FF1FE00FF11FE45BFE4F80819B85891B77
:100B100080830BC0F801EE0FFF1FE00FF11FE45BB5
:100B2000FE4F80819B85890F8083EB89E1FF0CC09C
:100B3000F101EE0FFF1FE20DF31DE45BFE4F81811B
:100B40009C85891B81830BC0F101EE0FFF1FE20D15
:100B5000F31DE45BFE4F81819C85890F8183EB89C6
:100B6000E2FF0CC0F101EE0FFF1FE20DF31DE45B8D
:100B7000FE4F82819C89891B828357C2F101EE0F4F
:100B8000FF1FE20DF31DE45BFE4F82819C89890FFC
:100B900082834BC2EB89E0FF0CC0F801EE0FFF1F10
:100BA000E00FF11FE45BFE4F80819F81891B8083F2
:100BB0000BC0F801EE0FFF1FE00FF11FE45BFE4FCB
:100BC00080819F81890F8083EB89E1FF0CC0F10157
:100BD000EE0FFF1FE20DF31DE45BFE4F81819B8151
:100BE000891B81830BC0F101EE0FFF1FE20DF31D86
:100BF000E45BFE4F81819B81890F8183EB89E2FF5A
:100C00000BC0F101EE0FFF1FE20DF31DE45BFE4F81
:100C100082818419828309C2F101EE0FFF1FE20D68
:100C2000F31DE45BFE4F8281840D8283FEC1FB894C
:100C3000F0FF0CC0F801EE0FFF1FE00FF11FE45BA7
:100C4000FE4F80819985891B80830BC0F801EE0FD0
:100C5000FF1FE00FF11FE45BFE4F80819985890F34
:100C60008083EB89E1FF0CC0F101EE0FFF1FE20D65
:100C7000F31DE45BFE4F81819D81891B81830BC045
:100C8000F101EE0FFF1FE20DF31DE45BFE4F8181CA
:100C90009D81890F8183EB89E2FF0CC0F101EE0F8A
:100CA000FF1FE20DF31DE45BFE4F82819981891BDA
:100CB0008283BBC1F101EE0FFF1FE20DF31DE45B68
:100CC000FE4F82819981890F8283AFC1EB89E0FF5A
:100CD0000EC0F801EE0FFF1FE00FF11FE45BFE4FA7
:100CE000808194E0E99E8019112480830DC0F80171
:100CF000EE0FFF1FE00FF11FE45BFE4F808194E0D9
:100D0000E99E800D11248083EB89E1FF0EC0F10183
:100D1000EE0FFF1FE20DF31DE45BFE4F818194E0B7
:100D2000C99E8019112481830DC0F101EE0FFF1FB0
:100D3000E20DF31DE45BFE4F818194E0C99E800DBE
:100D400011248183EB89E2FF0EC0F101EE0FFF1F3A
:100D5000E20DF31DE45BFE4F828194E0A99E8019B1
:100D60001124828362C1F101EE0FFF1FE20DF31D1A
:100D7000E45BFE4F828194E0A99E800D1124828362
:100D800054C1EB89E0FF12C0F801EE0FFF1FE00F26
:100D9000F11FE45BFE4F2081C701880F991F880F68
:100DA000991F8E0D9F1D281B20830DC0F801EE0F8B
:100DB000FF1FE00FF11FE45BFE4F808195E0E99E8D
:100DC000800D11248083EB89E1FF12C0F101EE0F49
:100DD000FF1FE20DF31DE45BFE4F2181C601880F6A
:100DE000991F880F991F8C0D9D1D281B21830DC0F5
:100DF000F101EE0FFF1FE20DF31DE45BFE4F818159
:100E000095E0C99E800D11248183EB89E2FF12C019
:100E1000F101EE0FFF1FE20DF31DE45BFE4F828137
:100E20009501220F331F220F331F2A0D3B1D821BFA
:100E30008283FBC0F101EE0FFF1FE20DF31DE45BA7
:100E4000FE4F828195E0A99E800D11248283EDC022
:100E5000EB89E0FF0CC0F801EE0FFF1FE00FF11F60
:100E6000E45BFE4F80819989891B80830BC0F80168
:100E7000EE0FFF1FE00FF11FE45BFE4F80819989A9
:100E8000890F8083EB89E1FF0CC0F101EE0FFF1F9A
:100E9000E20DF31DE45BFE4F81819F85891B8183F9
:100EA0000BC0F101EE0FFF1FE20DF31DE45BFE4FDF
:100EB00081819F85890F8183EB89E2FF0CC0F1015D
:100EC000EE0FFF1FE20DF31DE45BFE4F82819D8557
:100ED000891B8283AAC0F101EE0FFF1FE20DF31DF3
:100EE000E45BFE4F82819D85890F82839EC0EB89E2
:100EF000E0FF14C0F801EE0FFF1FE00FF11FE45BED
:100F0000FE4F2081C701880F991F880F991F880FF6
:100F1000991F8E199F09281B20830DC0F801EE0F21
:100F2000FF1FE00FF11FE45BFE4F808197E0E99E19
:100F3000800D11248083EB89E1FF14C0F101EE0FD5
:100F4000FF1FE20DF31DE45BFE4F2181C601880FF8
:100F5000991F880F991F880F991F8C199D09281BAD
:100F600021830DC0F101EE0FFF1FE20DF31DE45BC5
:100F7000FE4F818197E0C99E800D11248183EB890A
:100F8000E2FF0EC0F101EE0FFF1FE20DF31DE45B67
:100F9000FE4F828193012A193B09821B828345C03F
:100FA000F101EE0FFF1FE20DF31DE45BFE4F228106
:100FB000C3018A199B09820F828337C0FB89F0FF26
:100FC00009C0ECE4F1E0848598E0E99E80191124E1
:100FD000848708C0ECE4F1E0848598E0E99E800D08
:100FE00011248487EB89E1FF09C0ECE4F1E08585F9
:100FF00098E0C99E80191124858708C0ECE4F1E0CF
:10100000858598E0C99E800D11248587EB89E2FFD4
:1010100006C0ECE4F1E086858619868758CDECE4BD
:10102000F1E08685860D868752CDF9E18F16910411
:101030000CF44DCD64960FB6F894DEBF0FBECDBF55
:10104000DF91CF911F910F91FF90EF90DF90CF90A4
:10105000BF90AF909F908F907F906F905F904F90D8
:101060003F902F900895CF92DF92EF92FF920F93CF
:101070001F93CF93DF93609140017091410180E015
:1010800090E00E94C00D20E030E048E454E40E946B
:101090001F0D6B017C0100E010E0E801CC0FDD1FAB
:1010A000C00FD11FC45BDE4F698170E080E090E02B
:1010B0000E94C20DA70196010E94530E20E030E06D
:1010C00040E05FE30E94B30C0E94910D6983688148
:1010D00070E080E090E00E94C20DA70196010E949E
:1010E000530E20E030E040E05FE30E94B30C0E942A
:1010F000910D68836A8170E080E090E00E94C20DEB
:10110000A70196010E94530E20E030E040E05FE32B
:101110000E94B30C0E94910D6A830F5F1F4F09312B
:10112000110509F0BACFDF91CF911F910F91FF9078
:10113000EF90DF90CF9008954F925F926F927F92E1
:101140008F929F92AF92BF92CF92DF92EF92FF92D7
:101150000F931F93CF93DF93CDB7DEB7C054D10960
:101160000FB6F894DEBF0FBECDBF60914001709105
:10117000410180E090E00E94C00D2CE137EC41EB92
:1011800052E40E94B20C20E030E0A9010E944E0E11
:1011900018160CF468C300E010E005C3609140012C
:1011A0007091410178018FEFE81AF80A80E090E031
:1011B0000E94C00D2B013C01B7010F2C000C880BC5
:1011C000990B0E94C20D2CE137EC41EB52E40E94D6
:1011D000530E9B01AC01C301B2010E94B20C20E08E
:1011E00030E0A9010E944E0E18160CF0DCC2D601A8
:1011F0008D929D92AD92BD926D01870109301105CE
:1012000069F6E5C211921192119211920F5F1F4F70
:1012100009301105BCF3DBC2BFEFEB1AFB0AC701B3
:1012200001978931910508F0B8C2FC01E95AFF4FD6
:101230000C94E40EF60165AD70E080E090E00E9451
:10124000C20DA30192010E94530E20E030E040E065
:101250005FE30E94B30C0E94910DD601DD966C9362
:10126000DD97DC966C9170E080E090E00E94C20D0A
:10127000A30192010E94530E20E030E040E05FE3C2
:101280000E94B30C0E94910DF60164AF66AD70E050
:1012900080E090E00E94C20DA30192010E94530ED3
:1012A00020E030E040E05FE30E94B30C0E94910D2B
:1012B000D601DE966C93B0CF8C01000F111F800F0A
:1012C000911F8C01045B1E4FF801618170E080E08A
:1012D00090E00E94C20D2DA13EA14FA158A50E94F1
:1012E000530E20E030E040E05FE30E94B30C0E9428
:1012F000910DD80111966C9311976C9170E080E07C
:1013000090E00E94C20D2DA13EA14FA158A50E94C0
:10131000530E20E030E040E05FE30E94B30C0E94F7
:10132000910DF8016083628170E080E090E00E949E
:10133000C20D2DA13EA14FA158A50E94530E20E041
:1013400030E040E05FE30E94B30C0E94910DD801B1
:1013500012966C9322C28C01000F111F800F911FF7
:101360008C01045B1E4FF801618170E080E090E029
:101370000E94C20D29A53AA54BA55CA50E94530E5B
:1013800020E030E040E05FE30E94B30C0E94910D4A
:10139000D80111966C9311976C9170E080E090E009
:1013A0000E94C20D29A53AA54BA55CA50E94530E2B
:1013B00020E030E040E05FE30E94B30C0E94910D1A
:1013C000F8016083628170E080E090E00E94C20DCD
:1013D00029A53AA54BA55CA50E94530E20E030E05C
:1013E00040E05FE30E94B30C0E94910DD801129679
:1013F0006C93D3C18C01000F111F800F911F8C01C2
:10140000045B1E4FF801618170E080E090E00E9473
:10141000C20D2DA53EA54FA558A90E94530E20E050
:1014200030E040E05FE30E94B30C0E94910DD801D0
:1014300011966C9311976C9170E080E090E00E949F
:10144000C20D2DA53EA54FA558A90E94530E20E020
:1014500030E040E05FE30E94B30C0E94910DF80180
:101460006083628170E080E090E00E94C20D2DA553
:101470003EA54FA558A90E94530E20E030E040E061
:101480005FE30E94B30C0E94910DD80112966C93F9
:1014900084C18C01000F111F800F911F8C01045B10
:1014A0001E4FF801618170E080E090E00E94C20D63
:1014B00029A93AA94BA95CA90E94530E20E030E06B
:1014C00040E05FE30E94B30C0E94910DD801119699
:1014D0006C9311976C9170E080E090E00E94C20DD7
:1014E00029A93AA94BA95CA90E94530E20E030E03B
:1014F00040E05FE30E94B30C0E94910DF80160830D
:10150000628170E080E090E00E94C20D29A93AA9B2
:101510004BA95CA90E94530E20E030E040E05FE35D
:101520000E94B30C0E94910DD80112966C9335C1A4
:101530008C01000F111F800F911F8C01045B1E4F47
:10154000F801618170E080E090E00E94C20D2DA959
:101550003EA94FA958AD0E94530E20E030E040E074
:101560005FE30E94B30C0E94910DD80111966C9319
:1015700011976C9170E080E090E00E94C20D2DA95F
:101580003EA94FA958AD0E94530E20E030E040E044
:101590005FE30E94B30C0E94910DF80160836281A9
:1015A00070E080E090E00E94C20D2DA93EA94FA9F5
:1015B00058AD0E94530E20E030E040E05FE30E940F
:1015C000B30C0E94910DD80112966C93E6C08C0169
:1015D000000F111F800F911F8C01045B1E4FF8013B
:1015E000618170E080E090E00E94C20D29AD3AADCB
:1015F0004BAD5CAD0E94530E20E030E040E05FE375
:101600000E94B30C0E94910DD80111966C93119712
:101610006C9170E080E090E00E94C20D29AD3AAD7F
:101620004BAD5CAD0E94530E20E030E040E05FE344
:101630000E94B30C0E94910DF8016083628170E0FA
:1016400080E090E00E94C20D29AD3AAD4BAD5CAD9B
:101650000E94530E20E030E040E05FE30E94B30CB4
:101660000E94910DD80112966C9397C08C01000FC7
:10167000111F800F911F8C01045B1E4FF8016181C7
:1016800070E080E090E00E94C20D21962CAD3DAD4F
:101690004EAD5FAD21970E94530E20E030E040E058
:1016A0005FE30E94B30C0E94910DD80111966C93D8
:1016B00011976C9170E080E090E00E94C20D21963D
:1016C0002CAD3DAD4EAD5FAD21970E94530E20E095
:1016D00030E040E05FE30E94B30C0E94910DF801FE
:1016E0006083628170E080E090E00E94C20D2196EC
:1016F0002CAD3DAD4EAD5FAD21970E94530E20E065
:1017000030E040E05FE30E94B30C0E94910DD801ED
:1017100012966C9342C0F601658570E080E090E01F
:101720000E94C20DA50194010E94530E20E030E0FA
:1017300040E05FE30E94B30C0E94910DD6011D961C
:101740006C931D971C966C9170E080E090E00E9475
:10175000C20DA50194010E94530E20E030E040E04C
:101760005FE30E94B30C0E94910DF60164876685C9
:1017700070E080E090E00E94C20DA50194010E94FB
:10178000530E20E030E040E05FE30E94B30C0E9483
:10179000910DD6011E966C933FCDB9E1EB16F10485
:1017A0000CF43ACD77C0F801EE0FFF1FEE0FFF1FCC
:1017B00081E090E08C0F9D1FE80FF91F80E090E022
:1017C000A0E0BFE380839183A283B3831BCD89A074
:1017D0009AA0ABA0BCA049805A806B807C808D8D84
:1017E0009E8DAF8DB8A121968CAF9DAFAEAFBFAF30
:1017F00021978D819E81AF81B8858DA39EA3AFA3D4
:10180000B8A789859A85AB85BC8589A79AA7ABA718
:10181000BCA78D859E85AF85B8898DA79EA7AFA7EC
:10182000B8AB89899A89AB89BC8989AB9AABABABD8
:10183000BCAB8D899E89AF89B88D8DAB9EABAFABAC
:10184000B8AF898D9A8DAB8DBC8D89AF9AAFABAF98
:10185000BCAFEE24E394F12C0F2EFCE4CF2EF1E08C
:10186000DF2EF02DDCCC80E090E0A0E8BFE38983A0
:101870009A83AB83BC836E0195E0C90ED11C01E055
:1018800010E00F2E812C912CF0E8AF2EFFE3BF2E3D
:10189000F02D84CCC05CDF4F0FB6F894DEBF0FBED6
:1018A000CDBFDF91CF911F910F91FF90EF90DF900F
:1018B000CF90BF90AF909F908F907F906F905F90F0
:1018C0004F9008951F93CF93DF93CDB7DEB727973F
:1018D0000FB6F894DEBF0FBECDBF8BE490E09A83C5
:1018E000898380914C018B838BB180618C838BB118
:1018F0008F7E8D838D818E8388E08F836EE670E08E
:10190000FB0110825C811D814B813F812E81898189
:101910009A81EBE2F0E0ADE4B1E0508347FD252F82
:101920003A952083212F31F0441F00C000C010835E
:101930000000F3CF38E04D9110830000019769F764
:101940004B833F832E839A83898382E0FB018083CC
:1019500027960FB6F894DEBF0FBECDBFDF91CF91B3
:101960001F9108955058BB27AA270E94CA0C0C94B7
:10197000140E0E94060E38F00E940D0E20F039F46D
:101980009F3F19F426F40C94030E0EF4E095E7FB48
:101990000C94FD0DE92F0E94250E58F3BA1762072B
:1019A00073078407950720F079F4A6F50C94470E89
:1019B0000EF4E0950B2EBA2FA02D0B01B90190016A
:1019C0000C01CA01A0011124FF27591B99F0593FAE
:1019D00050F4503E68F11A16F040A22F232F342FF6
:1019E0004427585FF3CF469537952795A795F04044
:1019F0005395C9F77EF41F16BA0B620B730B840B59
:101A0000BAF09150A1F0FF0FBB1F661F771F881F10
:101A1000C2F70EC0BA0F621F731F841F48F4879568
:101A200077956795B795F7959E3F08F0B0CF93955A
:101A3000880F08F09927EE0F9795879508950E94D3
:101A4000330D0C94140E0E940D0E58F00E94060ED9
:101A500040F029F45F3F29F00C94FD0D51110C94D6
:101A6000480E0C94030E0E94250E68F39923B1F3DF
:101A7000552391F3951B550BBB27AA2762177307B4
:101A8000840738F09F5F5F4F220F331F441FAA1F48
:101A9000A9F335D00E2E3AF0E0E832D09150504004
:101AA000E695001CCAF72BD0FE2F29D0660F771FB2
:101AB000881FBB1F261737074807AB07B0E809F098
:101AC000BB0B802DBF01FF2793585F4F3AF09E3F1D
:101AD000510578F00C94FD0D0C94480E5F3FE4F333
:101AE000983ED4F3869577956795B795F7959F5F60
:101AF000C9F7880F911D9695879597F90895E1E0AC
:101B0000660F771F881FBB1F621773078407BA070A
:101B100020F0621B730B840BBA0BEE1F88F7E09565
:101B200008950E942D0E88F09F5798F0B92F99279D
:101B3000B751B0F0E1F0660F771F881F991F1AF0B8
:101B4000BA95C9F714C0B13091F00E94470EB1E0C8
:101B500008950C94470E672F782F8827B85F39F0C7
:101B6000B93FCCF3869577956795B395D9F73EF451
:101B700090958095709561957F4F8F4F9F4F0895F9
:101B8000E89409C097FB3EF4909580957095619517
:101B90007F4F8F4F9F4F9923A9F0F92F96E9BB27CD
:101BA0009395F695879577956795B795F111F8CF49
:101BB000FAF4BB0F11F460FF1BC06F5F7F4F8F4FB4
:101BC0009F4F16C0882311F096E911C0772321F0AA
:101BD0009EE8872F762F05C0662371F096E8862F42
:101BE00070E060E02AF09A95660F771F881FDAF799
:101BF000880F9695879597F9089597F99F6780E8DC
:101C000070E060E008959FEF80EC089500240A944E
:101C10001616170618060906089500240A941216C7
:101C20001306140605060895092E0394000C11F4FA
:101C3000882352F0BB0F40F4BF2B11F460FF04C0A7
:101C40006F5F7F4F8F4F9F4F089557FD9058440F00
:101C5000551F59F05F3F71F04795880F97FB991F0B
:101C600061F09F3F79F087950895121613061406C8
:101C7000551FF2CF4695F1DF08C016161706180655
:101C8000991FF1CF86957105610508940895E89430
:101C9000BB2766277727CB0197F908950E94C00ECE
:101CA00008F48FEF08950E94660E0C94140E0E94A3
:101CB000060E38F00E940D0E20F0952311F00C94C2
:101CC000FD0D0C94030E11240C94480E0E94250E59
:101CD00070F3959FC1F3950F50E0551F629FF0017F
:101CE000729FBB27F00DB11D639FAA27F00DB11D98
:101CF000AA1F649F6627B00DA11D661F829F222721
:101D0000B00DA11D621F739FB00DA11D621F839FA7
:101D1000A00D611D221F749F3327A00D611D231F7D
:101D2000849F600D211D822F762F6A2F11249F57CB
:101D300050409AF0F1F088234AF0EE0FFF1FBB1FCE
:101D4000661F771F881F91505040A9F79E3F51058D
:101D500080F00C94FD0D0C94480E5F3FE4F3983E28
:101D6000D4F3869577956795B795F795E7959F5F37
:101D7000C1F7FE2B880F911D9695879597F90895C9
:101D8000990F0008550FAA0BE0E8FEEF161617068C
:101D9000E807F907C0F012161306E407F50798F0F4
:101DA000621B730B840B950B39F40A2661F0232B0D
:101DB000242B252B21F408950A2609F4A140A69589
:101DC0008FEF811D811D0895EE0FFF1F0590F49187
:101DD000E02D0994A29FB001B39FC001A39F700D95
:101DE000811D1124911DB29F700D811D1124911D23
:061DF0000895F894FFCFF6
:101DF6000164000000000000000000000000000078
:101E06000000000000000000000000F0000000F0EC
:101E1600F00000FFFF0064FF64FF00FFFF0040408A
:0A1E2600FF00FFFFFF00FFFF0101B6
:00000001FF
